:020000040800F2
:1000000028400020A9010008B1010008B301000840
:10001000B5010008B7010008B901000800000000A0
:10002000000000000000000000000000BB0100080C
:10003000BD01000800000000BF010008C101000868
:10004000C3010008C3010008C3010008C301000880
:10005000C3010008C30100084D0700086907000834
:1000600085070008A1070008C3010008C3010008B4
:10007000C3010008C3010008C3010008C301000850
:10008000C3010008C3010008C3010008000000000C
:10009000000000000000000000000000C301000894
:1000A000C3010008C3010008C3010008C301000820
:1000B000C3010008C3010008FD110008C3010008C6
:1000C000C3010008C3010008C3010008C301000800
:1000D000C301000859120008C30100080000000015
:1000E000C3010008C3010008C301000800000000AC
:1000F000000000000000000000000000C301000834
:1001000000000000C3010008C3010008C30100088B
:1001100000000000000000000000000000000000DF
:10012000C3010008C3010008C3010008C30100089F
:10013000C3010008000000000000000000000000F3
:10014000000000000000000000000000C3010008E3
:10015000C3010008C3010008C3010008C30100086F
:10016000C3010008C30100080000000000000000F7
:10017000000000000000000000000000000000007F
:1001800000000000C30100080000000000000000A3
:10019000C3010008DFF80CD000F02EF8004800473B
:1001A00059180008284000200648804706480047A4
:1001B000FEE7FEE7FEE7FEE7FEE7FEE7FEE7FEE717
:1001C000FEE7FEE7951100089501000830B50B46E3
:1001D000014600202022012409E021FA02F59D4277
:1001E00005D303FA02F5491B04FA02F52844151E4B
:1001F000A2F10102F1DC30BD064C074D06E0E068DB
:1002000040F0010394E8070098471034AC42F6D35D
:10021000FFF7C4FF80190008A019000821B1826807
:1002200042F00102826003E0826822F001028260F3
:10023000704700000021084A1168084A1140D0E9BF
:1002400000231A4383681A43C3681A431143044ABC
:10025000C2F804137047000004230140E030FCFFA3
:10026000002001402DE9F0470746012F02D0022F60
:1002700061D161E000F036FC634800F08DF900BF09
:100280000221614800F0F8F80028F9D05E4800F03B
:10029000EFF8064640F6E44106FB01F0C11700EB1B
:1002A0001151C1F30F342246314658A001F03AF9FA
:1002B00000215548FFF7B2FF39E04FF47A7094FB04
:1002C000F0F00A2190FBF1F201FB120949460120EE
:1002D00001F034FA142001F00DFA642094FBF0F0E0
:1002E0000A2190FBF1F201FB12094946022001F0BC
:1002F00025FA142001F0FEF90A2094FBF0F00A21FF
:1003000090FBF1F201FB12094946032001F016FAB5
:10031000142001F0EFF90A2094FBF0F100FB1149E1
:100320004946042001F00AFA142001F0E3F93F489D
:1003300000680328C1D063E000F014FC324800F0EC
:100340002BF900BF0221304800F096F80028F9D0C0
:100350002D4800F08DF8804642F2107108FB01F044
:10036000C11700EB1151C1F30F3531A001F0DAF8DC
:10037000294639A001F0D6F800212348FFF74EFFA7
:1003800039E04FF47A7095FBF0F00A2190FBF1F21E
:1003900001FB12094946012001F0D0F9142001F0B7
:1003A000A9F9642095FBF0F00A2190FBF1F201FB22
:1003B00012094946022001F0C1F9142001F09AF90E
:1003C0000A2095FBF0F00A2190FBF1F201FB1209E3
:1003D0004946032001F0B2F9142001F08BF90A20FC
:1003E00095FBF0F100FB11594946042001F0A6F9F4
:1003F000142001F07FF90D4800680428C1D000BF27
:1004000000BFBDE8F087000000200140D7AABBBBB9
:10041000D6B5CAC7A3BA256420CAB5BCCAB5E7D148
:10042000B9A3BA25646D76200D0A000004000020EF
:10043000A1AAA1AAA1AAA1AAA1AAA1AAA1AAA1AA64
:10044000A1AAA1AAA1AAA1AAA1AAA1AAA1AAA1AA54
:10045000A1AA0D0A00000000C6F8CCE5BCECB2E28F
:10046000BDE1B9FBCEAAA3BA256420200D0A000085
:100470000146C86C80B270470246002013680B40EA
:100480000BB1012000E000207047000030B50246AB
:10049000002000235068104C20400D790C6844EA7D
:1004A00005242043506090680C4C2040D1E903544F
:1004B0002C438D682C434D7944EA450420439060D9
:1004C000D06A20F470000C7D641EE4B2234340EA3D
:1004D0000350D06230BD0000FFFEFFFCFDF7FFC0FF
:1004E000F0B504460D4600200021092D11DDE0681D
:1004F000A5F10A0606EB4607072606FA07F1884328
:10050000A5F10A0606EB460603FA06F10843E06089
:100510000CE0206905EB4507072606FA07F188433A
:1005200005EB450603FA06F108432061072A0FDAB6
:10053000606B561E06EB86071F2606FA07F18843F6
:10054000561E06EB860605FA06F10843606322E0B4
:100550000D2A0FDA206BD61F06EB86071F2606FA38
:1005600007F18843D61F06EB860605FA06F1084315
:10057000206310E0E06AA2F10D0606EB86071F2655
:1005800006FA07F18843A2F10D0606EB860605FA86
:1005900006F10843E062F0BD816841F0804181606E
:1005A000704700001CB50121082000F061FB4FF4EA
:1005B0008050009000208DF8040003208DF8050085
:1005C00001208DF807006946014800F0D9F91CBDEB
:1005D000000C02401CB50121082000F049FB4FF43B
:1005E0008050009001208DF8040000208DF8060056
:1005F00003208DF8050000208DF8070069460648A5
:1006000000F0BEF94FF48051034800F024FA1420A2
:1006100001F070F81CBD0000000C024070B500260F
:1006200000240025FFF7BEFF13E00A2001F06DF85B
:100630002148006800B90DE0701C0646642808DDFA
:100640001EA000F06FFF27A000F06CFF4FF0FF30FE
:1006500070BDEAE700BF14E00A2001F056F8164822
:100660000068012800D10DE0601C0446642808DD04
:1006700012A000F057FF20A000F054FF4FF0FF3011
:10068000E6E7E9E700BF13E00A2001F03EF80A4878
:10069000006800B90DE0681C0546642808DD07A065
:1006A00000F040FF19A000F03DFF4FF0FF30CFE712
:1006B000EAE700BF0020CBE730824142A1AAA1AA0D
:1006C000A1AAA1AAA1AAA1AAA1AAA1AAA1AAA1AAD2
:1006D000A1AAA1AAA1AAA1AAA1AAA1AAA1AA0D0AF6
:1006E00000000000BBBDD0D14448543131CAA7B08E
:1006F000DC310D0A00000000BBBDD0D144485431AC
:1007000031CAA7B0DC320D0A00000000BBBDD0D159
:100710004448543131CAA7B0DC330D0A0000000050
:1007200010B5FFF757FF002006490860142000F0BD
:10073000E1FF01200449C1F8B0021E2000F0E5FFEE
:1007400010BD0000B08241420080414210B501203E
:1007500000F098F820B101200249086000F08CF800
:1007600010BD00000400002010B5022000F08AF83F
:1007700020B102200249086000F07EF810BD0000A0
:100780000400002010B5042000F07CF828B10320FC
:1007900002490860042000F06FF810BD040000203A
:1007A00010B5082000F06EF828B104200249086056
:1007B000082000F061F810BD040000200EB500F024
:1007C00079F90121880300F063FA0021012000F08B
:1007D00039FC0121084600F035FC0221012000F01F
:1007E00031FC0321012000F02DFC0F20019000209E
:1007F0008DF8080008208DF8090001208DF80A0006
:1008000001A800F04BF806208DF8000000208DF8BC
:1008100001008DF8020001208DF80300684600F009
:10082000E1F907208DF8000001208DF801008DF816
:1008300002008DF80300684600F0D4F908208DF816
:10084000000002208DF801008DF8020001208DF8D3
:100850000300684600F0C6F909208DF80000032067
:100860008DF801008DF8020001208DF80300684624
:1008700000F0B8F90EBD00000149086070470000A3
:10088000143C014001460020034A12680A400AB1A4
:10089000012000E000207047143C01400021234962
:1008A0008279002A3AD00A46126803689A430B46B6
:1008B0001A600A1D126803689A430B1D1A600279B8
:1008C00011440A6803681A430A60184A0832126819
:1008D00003689A43154B08331A601A1D126803689F
:1008E0009A43124B0C331A604279102A0ED11A1F08
:1008F000126803681A430D4B08331A601A1D1268F8
:1009000003681A43094B0C331A600DE0074942791A
:1009100011440A6803681A430A6005E00279114429
:100920000A6803689A430A6070470000003C01406F
:1009300010B500F065FB044603A000F0F3FD21466E
:100940000BA000F0EFFD10BDA1AAA1AAA1AAA1AA27
:10095000A1AAA1AAA1AAA1AAA1AAA1AAA1AAA1AA3F
:10096000A1AAA1AAA1AAA1AAA1AA0D0A00000000F9
:10097000BEE0C0EBD6B5CAC7A3BA2564200D0A00F5
:10098000F0B50A4600210023002400BF3DE0012508
:1009900005FA01F3156805EA03049C4234D10568A1
:1009A0004F000326BE40B543056015794E00B540A3
:1009B0000668354305601579012D02D01579022DA1
:1009C00016D185684F000326BE40B5438560557932
:1009D0004E00B540866835438560456801268E40E7
:1009E000B5434560456896798E40B6B2354345605B
:1009F000C5684F000326BE40B543C560D5794E009B
:100A0000B540C6683543C560491C1029BFD3F0BD49
:100A1000F0B5002300244D07ED0E02FA05F3CE10C9
:100A200000F1200555F826504E07F70E0F26BE4060
:100A3000B543CF1000F1200646F82750CE1000F144
:100A4000200555F8265045EA0304CE1000F1200594
:100A500045F82640F0BD01837047416170470000B2
:100A60001CB50121082000F003F94020009001206E
:100A70008DF8040000208DF8060003208DF8050095
:100A800000208DF8070069460948FFF779FF8020AC
:100A9000009000208DF8040003208DF80500002050
:100AA0008DF8070069460248FFF76AFF1CBD000089
:100AB000000C02401CB50121022000F0D9F80F20E3
:100AC000009000208DF8040003208DF8050001201F
:100AD0008DF8070069460248FFF752FF1CBD000071
:100AE0000004024000B58DB00121084600F0C0F8B6
:100AF0000121080200F0CCF82020019003208DF89D
:100B0000080000208DF80B0001A91448FFF738FFFA
:100B10000020039004900590069003A8FFF78AFB3D
:100B2000002007908DF8200001208DF82100002082
:100B300009900B9001208DF8300007A90848FFF7B5
:100B4000A5FC0023012205210548FFF7C9FC01216E
:100B50000348FFF763FB0DB000BD0000000002403A
:100B60000020014000B58DB00121084600F080F85A
:100B70000121080200F08CF88020019003208DF8FC
:100B8000080000208DF80B0001A91448FFF7F8FEBB
:100B90000020039004900590069003A8FFF74AFBFD
:100BA000002007908DF8200001208DF82100002002
:100BB00009900B9001208DF8300007A90848FFF735
:100BC00065FC0023012207210548FFF789FC01216C
:100BD0000348FFF723FB0DB000BD000000000240FA
:100BE0000020014070B5002100230F22C4781CB3FF
:100BF000174C246804F4E064C4F5E064C4F30721EE
:100C0000C1F10404E3B20A4144789C40E1B2847823
:100C1000144021430C07210E0E4C057861550478D1
:100C200004F01F050124AC4005786D11AD0005F1FD
:100C3000E025C5F8004109E0047804F01F0501240F
:100C4000AC40054D0678761145F8264070BD000091
:100C50000CED00E000E400E080E100E00249014327
:100C6000024A1160704700000000FA050CED00E038
:100C700029B1064A12680243044B1A6004E0034A91
:100C800012688243014B1A607047000030380240FE
:100C900029B1064A12680243044B1A6004E0034A71
:100CA00012688243014B1A607047000044380240CA
:100CB000F0B5002100220024022500260223324F35
:100CC0003F6807F00C0121B1042905D0082937D16C
:100CD00005E02E4F076036E02D4F076033E02A4FC6
:100CE0003F1F3F68C7F38056274F3F1F3F6807F0FD
:100CF0003F036EB1264FB7FBF3F7DFF88CC0ACF1C2
:100D0000040CDCF800C0CCF3881C07FB0CF40CE0EE
:100D10001E4FB7FBF3F7DFF870C0ACF1040CDCF842
:100D200000C0CCF3881C07FB0CF4174F3F1F3F6833
:100D3000C7F301477F1C7D00B4FBF5F7076002E0B5
:100D4000124F076000BF00BF0F4F3F6807F0F00170
:100D50000909104F7A5C0768D74047600A4F3F681F
:100D600007F4E051890A0B4F7A5C4768D7408760E7
:100D7000054F3F6807F46041490B064F7A5C4768AE
:100D8000D740C760F0BD0000083802400024F400DE
:100D900000127A00120000207CB5FFF7C1FCFFF7BB
:100DA0003DFCC5B2002D78D1002405E000F006F925
:100DB0000DF80400601CC4B2052CF7DB9DF80000A0
:100DC0009DF8011008449DF8021008449DF8031096
:100DD00008449DF8041088427DD15B4800680128D2
:100DE0004ED15AA000F09EFB9DF8021061A000F0C9
:100DF00099FB3EE09DF80200122803DB9DF80200FB
:100E00001C2802DD0120614908609DF802000A21CA
:100E100090FBF1F63146012000F090FC142000F028
:100E200069FC9DF802000A2190FBF1F201FB120619
:100E30003146022000F082FC142000F05BFC9DF89B
:100E400003000A2190FBF1F63146032000F076FC06
:100E5000142000F04FFC9DF803000A2190FBF1F2F2
:100E600001FB12063146042000F068FC142000F05B
:100E700041FC354800680128BCD000204349086087
:100E800031480068022858D130A000F04BFB9DF893
:100E900000103FA000F046FB41E04EE09DF800004E
:100EA0001E2803DB9DF80000462802DD012037499B
:100EB00008609DF800000A2190FBF1F63146012000
:100EC00000F03CFC142000F015FC9DF800000A2105
:100ED00090FBF1F200E02AE001FB1206314602200D
:100EE00000F02CFC142000F005FC9DF801000A2104
:100EF00090FBF1F63146032000F020FC142000F0B6
:100F0000F9FB9DF801000A2190FBF1F201FB1206AA
:100F10003146042000F012FC142000F0EBFB0A48DC
:100F200000680228BAD000201849086005E007A030
:100F300000F0F8FA1CA000F0F5FAFFF74BFB0120D7
:100F40001249303108607CBD04000020A1AAA1AA8A
:100F5000A1AAA1AAA1AAA1AAA1AAA1AAA1AAA1AA39
:100F6000A1AAA1AAA1AAA1AAA1AAA1AAA1AA0D0A5D
:100F700000000000B5B1C7B0BBB7BEB3CEC2B6C8A3
:100F8000A3BA256420A1E60D0A0000008082414238
:100F9000B5B1C7B0BBB7BEB3CAAAB6C8A3BA2564B9
:100FA0002025250D0A0000004448543131CAFDBEF9
:100FB000DDB2BBD5FDC8B70D0A00000070B5002535
:100FC000002417E000BF0D4800680028FBD01E2059
:100FD00000F09BFB09480068012809D1C4F1070112
:100FE00088402843C5B200BF044800680128FBD0F0
:100FF000601CC4B2082CE5DB284670BD308241423B
:1010000070B50025FFF72CFD01200D4908600A206E
:1010100000F07BFB00BF0A487C3800680028FAD04B
:1010200003E0082000F071FB6D1C05487C38006867
:101030000128F6D005EB45004408204670BD0000AD
:101040009882414230B500228B071C0F0F2303FA10
:1010500004F20B4B8C1053F824309343084C8D1042
:1010600044F8253023468C1053F824308C07240F85
:1010700000FA04F42343024C8D1044F8253030BDAF
:10108000083801400CB500200190009033480068FA
:1010900040F480303149086000BF3048006800F4F7
:1010A000003000900198401C0190009818B90198F8
:1010B000B0F5A04FF1D12948006800F4003010B11C
:1010C0000120009001E0002000900098012844D108
:1010D00022484030006840F080502049403108608C
:1010E0001F48006840F440401D4908601B48083014
:1010F00000681A4908310860084600680860084618
:10110000006840F4805008601648091F0860081FF6
:10111000006840F08070091F086000BF0F48006839
:1011200000F000700028F9D040F202700E4908600B
:101130000A480830006820F00300084908310860B8
:101140000846006840F00200086000BF034808300D
:10115000006800F00C000828F8D10CBD00380240EF
:101160000070004008544107003C0240042808D1A8
:101170004FF0E021096941F004014FF0E0221161D4
:1011800007E04FF0E021096921F004014FF0E0226F
:101190001161704710B51548006840F4700013499C
:1011A00008601348006840F0010011490860002001
:1011B0000F49083108600E4800680E4908400C4984
:1011C00008600D48091D0860081F006820F4802091
:1011D000091F0860002006490C310860FFF752FF24
:1011E0004FF0006001498039086010BD88ED00E0D3
:1011F00000380240FFFFF6FE1030002410B5012138
:10120000084800F018F801280AD10748006880F063
:1012100001000649C1F884020121024800F008F8E3
:1012200010BD00000008004084024042000040421F
:10123000CA430282704730B50246002000230024D2
:10124000158A05EA0103958905EA010413B10CB179
:10125000012000E0002030BD10B540F225510D48BE
:1012600000F09DF8A8B10B4800F052F90446214661
:10127000084800F052F9312C03D1002006490860DB
:1012800002E001200449086040F22551014800F0C5
:1012900005F810BD001001408802404210B5002240
:1012A000002340F66A14A14200D100BF0A120124B3
:1012B0009440A3B2DC43048010BD21B1828942F482
:1012C0000052828104E082894DF6FF731A408281C8
:1012D0007047000000B587B001210846FFF7C8FC41
:1012E00001211020FFF7D4FC072209212348FFF732
:1012F0008FFB07220A212148FFF78AFB00208DF887
:101300001A0001208DF81B0002208DF818004FF400
:10131000C060059002208DF8190005A91748FFF755
:101320002FFB4FF4165001900020ADF80800ADF8E7
:101330000A00ADF80C00ADF810000C20ADF80E005E
:1013400001A90F4800F07AF825208DF80000002050
:101350008DF801008DF8020001208DF80300684629
:10136000FFF740FC012240F22551054800F041F80A
:1013700001210348FFF7A1FF07B000BD00000240B4
:101380000010014002460020B1F5007F00D100BFEF
:1013900013880B400BB1012000E00020704770B5AE
:1013A0000246002400230025002040F66A16B142C0
:1013B00000D100BFC1F3421501F01F03012606FA58
:1013C00003F3012D02D19689334006E0022D02D1AC
:1013D000168A334001E0968A33400C12012606FA41
:1013E00004F41688344013B10CB1012000E0002051
:1013F00070BDF0B50346002400260025002040F60D
:101400006A17B94200D100BF1846C1F3421401F077
:101410001F06012707FA06F5012C01D10C3004E064
:10142000022C01D1103000E014301AB107682F43AC
:10143000076002E00768AF430760F0BD2DE9FF4792
:1014400005460E460024A14600BFA046B08900B163
:1014500000BF2C8A24F44054F08804432C82AC89C9
:1014600041F20C608443B088318908437189084394
:101470000443AC81AC8A24F44074B0890443AC8248
:101480006846FFF715FC2048854202D01F48854278
:1014900002D1DDF80C9001E0DDF80890A88900F495
:1014A000004040B109EBC90000EB09103168490068
:1014B000B0FBF1F707E009EBC90000EB0910316858
:1014C0008900B0FBF1F76420B7FBF0F004012009BC
:1014D000642101FB1078A88900F4004040B132205B
:1014E00000EBC800B0FBF1F000F00700044308E097
:1014F000322000EB08106421B0FBF1F000F00F0087
:1015000004432C81BDE8FF87001001400014014016
:1015100001468888C0F308007047C1F30802828042
:10152000704700000FB4054B10B503A9044A029898
:1015300000F018F810BC5DF814FB00003518000826
:101540002400002002E008C8121F08C1002AFAD1B6
:1015500070477047002001E001C1121F002AFBD133
:10156000704700002DE9FF4F89B09B4604460025D7
:1015700006E025280BD05A460B999047641C6D1C39
:1015800020780028F5D10DB02846BDE8F08F00275F
:10159000B8460122474900E0074314F8013F203BC9
:1015A00002FA03F00842F7D120782E2819D114F856
:1015B000010F47F004072A280ED06FF02F02207881
:1015C000A0F1300109290CD808EB880102EB410198
:1015D00000EB0108641CF2E70A98641C50F8048BC5
:1015E0000A9020780028CED0642808D0692806D038
:1015F00075281ED05A460B9990476D1C58E00A99E1
:101600004FF00A0901C90A91002802DA40422D214F
:1016100002E0390504D52B218DF82010012103E0CB
:10162000F90704D02021F7E78A4608AE0DE0002133
:10163000FAE70A994FF00A0901C90A91F7E7494602
:10164000FEF7C4FD303106F8011D0028F7D1ADEBDF
:10165000060000F12009780701D44FF00108C845C1
:1016600002DDA8EB090000E000208046002706E02C
:1016700008A85A46C05D0B9990476D1C7F1C5745C2
:10168000F6DB04E030205A460B9990476D1CB8F108
:101690000001A8F10108F5DC05E016F8010B5A4637
:1016A0000B9990476D1CB9F10001A9F10109F4DC17
:1016B000641C65E7092801001CB501210820FFF71B
:1016C000D7FA012000908DF8040000208DF8060064
:1016D00003208DF8050000208DF8070069460348B7
:1016E000FFF74EF90020024908601CBD000C0240C3
:1016F0008082414200B5034604E04FF47A7000F066
:1017000004F85B1E002BF8D100BD00214FF0E02251
:101710001161542141435161002191610121116105
:1017200000BF4FF0E021096901F480310029F8D0B1
:1017300000214FF0E02211617047000070B50446AF
:101740000D46012C11D10020284908602848415D30
:101750002848FFF782F901202749C1F8A40223494C
:10176000083108602449C1F8AC02022C12D10020D3
:101770001E49091D08601E48415D1E48FFF76DF9AE
:1017800001201D49C1F8A0021849083108601A4912
:10179000C1F8AC02032C12D10020144908310860B2
:1017A0001348415D1348FFF758F901201249C1F869
:1017B000A0020E49091D08600F49C1F8AC02042CB3
:1017C00012D1002009490C3108600948415D0948DF
:1017D000FFF743F901200849C1F8A0020349091D98
:1017E00008600549C1F8A80270BD0000A00241428E
:1017F0000800002000080240000041421CB5012101
:101800000420FFF735FA40F6FF70009001208DF8B4
:10181000040000208DF8060003208DF8050000204C
:101820008DF8070069460248FFF7AAF81CBD0000C2
:101830000008024070B504460D46A1B20548FFF706
:101840006CFE00BF80210348FFF79CFD0028F9D003
:10185000204670BD001001400420FFF787FC4FF4C4
:10186000A060FFF7FBF9FEF7A9FFFFF733FDFFF7D5
:10187000C5FFFFF721FF32E019480068012806D0B4
:10188000022807D0032808D0042810D10BE0FFF766
:1018900083FA23E0FFF780FA20E0FFF749F8012000
:1018A000FEF7E0FC1AE00220FEF7DCFC16E00D4833
:1018B0000068012811D10CA0FFF734FE14A0FFF737
:1018C00031FE1AA0FFF72EFE1FA0FFF72BFE25A06A
:1018D000FFF728FE00200349086000BF00BFCBE7E8
:1018E0000400002000000020A1AAA1AAA1AAA1AA88
:1018F000A1AAA1AAA1AAA1AAA1AAA1AAA1AAA1AA90
:10190000A1AAA1AAA1AAA1AAA1AA0D0A0000000049
:101910002A2A2A2A2A2A4B4559313ABCECB2E2CE6D
:10192000C2B6C82A2A2A2A2A2A0D0A002A2A2A2ABC
:101930002A2A4B4559323ABCECB2E2CAAAB6C82AA6
:101940002A2A2A2A2A0D0A002A2A2A2A2A2A4B4522
:1019500059333ABCECB2E2B9E2D5D52A2A2A2A2A6E
:101960002A0D0A002A2A2A2A2A2A4B4559343ABC27
:10197000ECB2E2C6F8CCE52A2A2A2A2A2A0D0A0065
:10198000A0190008000000202800000044150008ED
:10199000C819000828000020004000005415000865
:1019A00001000000000000003F065B4F666D7D07F0
:1019B0007F6F000000000102030401020304060718
:0819C00008090000000000000E
:040000050800019559
:00000001FF
